:020000040800F2
:1000000000180020593A0008450D0008470D000867
:1000100000000000000000000000000000000000E0
:10002000000000000000000000000000490D000872
:1000300000000000000000004B0D00084D0D0008FE
:10004000D93A0008D93A0008D93A0008D93A000844
:10005000D93A0008D93A0008D93A0008D93A000834
:10006000D93A0008D93A0008D93A0008D93A000824
:10007000D93A0008D93A0008D93A0008D93A000814
:10008000D93A00080000000000000000D93A00083A
:1000900000000000D93A0008D93A0008D93A00080F
:1000A00000000000D93A0008D93A0008D93A0008FF
:1000B000D93A000800000000D93A0008550D0008A0
:1000C00010B5064C2378002B07D1054B002B02D02E
:1000D000044800E000BF0123237010BD740200201B
:1000E00000000000343B0008044B10B5002B03D087
:1000F0000349044800E000BF10BDC04600000000F6
:1001000078020020343B0008002243088B4274D35D
:1001100003098B425FD3030A8B4244D3030B8B4208
:1001200028D3030C8B420DD3FF22090212BA030C11
:100130008B4202D31212090265D0030B8B4219D3F2
:1001400000E0090AC30B8B4201D3CB03C01A524112
:10015000830B8B4201D38B03C01A5241430B8B425A
:1001600001D34B03C01A5241030B8B4201D30B0343
:10017000C01A5241C30A8B4201D3CB02C01A52416A
:10018000830A8B4201D38B02C01A5241430A8B422D
:1001900001D34B02C01A5241030A8B4201D30B0216
:1001A000C01A5241CDD2C3098B4201D3CB01C01A30
:1001B000524183098B4201D38B01C01A524143093A
:1001C0008B4201D34B01C01A524103098B4201D328
:1001D0000B01C01A5241C3088B4201D3CB00C01A95
:1001E000524183088B4201D38B00C01A524143080D
:1001F0008B4201D34B00C01A5241411A00D2014632
:10020000524110467047FFE701B5002000F006F8A4
:1002100002BDC0460029F7D076E770477047C04658
:1002200010B5902000221021C00502F06FFE10BD15
:1002300070B505000C00902001220421C00502F0D9
:1002400065FE0123A2B2034908685B42290002F05F
:1002500049F870BD9402002010B582B06B46DC1DD9
:10026000D871902000220421C00502F04FFE012326
:10027000044A10685B420122210002F033F802B008
:1002800010BDC0469402002010B59024E405002261
:100290000821200002F03AFE0A2002F065FD01224A
:1002A0000821200002F032FE10BD10B5902001227E
:1002B0001021C00502F02AFE10BDF0B5C64600B5FB
:1002C00082B080460E0017001D002A20FFF7C4FFF1
:1002D00001AC00222270434601336370A2700137E3
:1002E000E77004212000FFF7A3FF2B20FFF7B4FFE6
:1002F0001A3666701A35E57004212000FFF798FF62
:100300002C20FFF7A9FF02B004BC9046F0BD00000E
:1003100010B5114B1860FFF7C8FFFFF7B5FF0520B8
:1003200002F022FDFFF77CFF0C4C04E0201DFFF7DC
:100330007FFF08E01434607800280AD0FFF78CFFB4
:10034000E1780029F2D1A0780028F3D002F00CFD6A
:10035000F0E7FFF7AAFF10BD940200200000002084
:1003600070B504000D00FFF75BFF29002000FFF7C8
:100370005FFFFFF79AFF70BDF8B505000E0014008F
:100380001F00FFF74DFF013FFBB2013CE2B2F1B2AB
:10039000E8B2FFF792FFFFF788FFF8BD82B0F0B533
:1003A000CE46474680B583B091461A1C1C00240AED
:1003B0000B930DAB1F880EAB1E88C0B2C9B2D2B270
:1003C0008218D2B2E3B2CB18DBB2013BDBB2013A06
:1003D000D2B2FFF772FF002398461AE001A8330A51
:1003E000037046700221FFF723FF01340BAB1B782B
:1003F000A3420BD92B00A3401B04EFD501A83B0A55
:10040000037047700221FFF713FFEEE701239C46BC
:10041000E0440BAB5B78434508D94A46203A534346
:1004200043445B000C9A9D5A0024DFE703B00CBCE8
:1004300090469946F0BC08BC02B0184770B5A8B009
:1004400016001D002CAB1C889F284DD84F294BD877
:100450008318013B9F2B02DDA026361AB6B24B193A
:10046000013B4F2B02DD50256D1AADB2FFF7D8FED0
:10047000002305E0220A6946CA545A1C8C540233F0
:100480009F2BF7D9902001220421C00502F03EFDE8
:10049000002410E0E1B2721ED2B20B000020FFF780
:1004A0000CFFA0216846FFF7C3FEA0216846FFF7B6
:1004B000BFFE0234A4B2AC42ECD3012410E0E1B29E
:1004C000721ED2B20B000020FFF7F7FEA021684693
:1004D000FFF7AEFEA0216846FFF7AAFE0234A4B2E1
:1004E000AC42ECD3FFF7E1FE28B070BD00B583B09D
:1004F00000905023A02200210020FFF79FFF00233F
:10050000024A1370024A137003B000BD910200202A
:1005100090020020F0B5C64600B586B004000491F4
:10052000059298460CAB1D88FFF77AFE19E02378F8
:10053000202B2DD022780A2A2CD0002A3DD004AEC0
:10054000214B1978214F3878029543460193059B3A
:100550000093049BFFF722FF013433783A789B180D
:100560003B702378002B28D0184B1B789F2BE1D9A8
:10057000164B00221A7004AB5978134802788A1877
:10058000D3B203705B184F2BD1DD00220270CEE78F
:100590000134E6E701340D4B00221A700A4B1B7838
:1005A00004AA527899184F2903DD074B00221A70CC
:1005B000D7E79B18044A1370D3E7FFF776FE06B01F
:1005C00004BC9046F0BDC04691020020900200207D
:1005D000054B064A1A60BFF34F8F054B054ADA6098
:1005E000BFF34F8FC046FDE700100020EFBEADDE29
:1005F00000ED00E00400FA0570B50500096809295E
:100600001AD0002957D02F4B1B78002B55D089B218
:100610002D4B1C880C19A4B22C4B1B88A34238D834
:1006200037D04CD20023284A1380284A1380002256
:10063000244B1A7001203FE00378222BE1D1037A8A
:10064000332BDED14378042B0DD0072B1FD0012B89
:100650002FD100231C4A13801C4A13800022194BFF
:100660001A70002028E0C379827941790079FFF778
:1006700083FE154B00221A80AA78EB781B021343E5
:10068000124A13800F4B01221A70002014E0FFF76A
:100690009FFF2800FFF764FE0B4B1C800B4B1B8851
:1006A000A34201D0002007E0064B00221A70002070
:1006B00002E0002000E0002070BD0020FCE70020E8
:1006C000FAE7C046980200209C0200209A0200200F
:1006D000F0B587B000AF194B1A68194B9A4202D097
:1006E000BD4607B0F0BD0026144B1E60154A516987
:1006F0008020C00201435161536903403B603B6865
:1007000080256D00104C00222900200002F0FEFB25
:100710007D600123BB60FE603E61391D200002F058
:1007200035FB01222900200002F0F0FB074B1B687B
:10073000074A126882F308889847FEE700100020F5
:10074000EFBEADDE001002400004004804C4FF1FED
:1007500000C4FF1F30B583B004000D0000F07BFA29
:100760000190022D02D0002003B030BD0028FAD045
:1007700086239B00E558D93BFF3B2A00022120003D
:1007800000F059FA01A92800FFF736FF6B46D87030
:1007900001236A4603328221200003F045F9002834
:1007A000F6D0E0E7F0B589B01422002103A803F0E9
:1007B000B9F91B4B596980208002014359615A697C
:1007C00002400192019A5A698021C9020A435A6182
:1007D0005B690B400293029B9027FF0500221C21BE
:1007E000380002F093FB0425FF35002229000D4854
:1007F00002F08CFB1C23039301260496002405942D
:10080000069403A9380002F0C1FA039504960594F2
:10081000069403A9034802F0B9FA09B0F0BDC04636
:10082000001002400004004800B583B0094A516935
:10083000012319435161526913400193019B002226
:1008400000210A2002F068FB0A2002F095FB03B0A9
:1008500000BDC0460010024010B50E480E4B0360AC
:1008600082235B00436000238360E022D200C260E9
:1008700003614361802292008261C361036243622B
:100880008362FA3AFF3AC26203630833436301F0BA
:10089000C3FC10BD000300200030014010B598B02B
:1008A000302200210CA803F03DF91022002107A8F6
:1008B00003F038F91822002101A803F033F92023AE
:1008C0000B931F3B13930BA801F0EEFD0723079337
:1008D000043B0893002409940A94012107A802F01C
:1008E000ABF880239B020193069401A802F06CF9F7
:1008F00018B010BD10B582B0FFF7EAFE02F016FA8C
:10090000FFF7CCFFFFF74EFFFFF78EFF104803F015
:1009100085F800F02BF8FFF79FFF0E48FFF7F8FC73
:100920000D4C01220121200002F0F0FA01220221E7
:10093000200002F0EBFA0020FFF7D8FD074A002361
:100940000093074B116852680648FFF7E3FDFEE786
:10095000550700080003002000040048CC010020D7
:10096000FFFF0000D84200087047000010B5074C98
:1009700000220749200002F055FB0649200002F042
:100980006DFB200002F073FB10BDC046A8030020E1
:10099000D40100200C02002010B5FFF77FFF10BD2E
:1009A00000B583B002680C4B9A4201D003B000BD81
:1009B0000A4AD169802000040143D161D369034010
:1009C0000193019B002200211F2002F0A5FA1F20A5
:1009D00002F0D2FAEAE7C046005C00400010024094
:1009E00010B5010087239B00C058ED31FF3102F0A4
:1009F0005BFB10BD10B50300872292008058CA002F
:100A0000521A94001B191933FF331A6802F080FB45
:100A100010BD10B50300872292008058CA00521AF8
:100A200094001B199A6B02F0AFFB10BD10B5872321
:100A30009B00C05802F041FC10BD70B50500872432
:100A4000A4000121005902F023FC285902F0FDFB0B
:100A500070BD000010B5040087239B00C05802F051
:100A60001AFCA369002B04D0024A136906210B4328
:100A7000136110BD00ED00E010B504008369002B88
:100A800005D187239B00E05802F010FC10BD044AFA
:100A9000136906218B431361FFF77EFFF1E7C04620
:100AA00000ED00E070B504001A4887239B00C45095
:100AB0000433E050184B0360082343600222826035
:100AC0000023C36002618361C361036200F09AF98D
:100AD00000281BD18825AD00182300220021605971
:100AE00001F09EFA582300228021605901F098FA03
:100AF000982300228221605901F092FA6059D8238C
:100B00000022022101F08CFA002070BDFFF72CFFBB
:100B1000E0E7C046CC050020005C004010B588230B
:100B20009B00C05800F0CEF9002803D0022803D063
:100B3000022010BD0020FCE70120FAE710B51400E8
:100B40001A0088239B00C058230000F0E3F9002816
:100B500003D0022803D0022010BD0020FCE70120B2
:100B6000FAE710B588239B00C05800F07DFB0028F1
:100B700003D0022803D0022010BD0020FCE7012092
:100B8000FAE710B588239B00C05800F05FFD0028ED
:100B900003D0022803D0022010BD0020FCE7012072
:100BA000FAE710B588239B00C05800F0AFFD00287D
:100BB00003D0022803D0022010BD0020FCE7012052
:100BC000FAE70A0088239B00C35849B2002909DBD1
:100BD0007F211140CA00511A8A009B180B33FF3342
:100BE000187870477F211140C800411A8A009B186D
:100BF0002A331878F5E710B588239B00C05800F019
:100C00006DF9002803D0022803D0022010BD002077
:100C1000FCE70120FAE710B58824A400005900F091
:100C2000F9FD002803D0022803D0022010BD0020C7
:100C3000FCE70120FAE710B58824A400005900F071
:100C4000FBFB002803D0022803D0022010BD0020A7
:100C5000FCE70120FAE710B588239B00C05800F09C
:100C6000EBFC10BD00487047A00200207047000058
:100C700012230B8000487047F001002004230B80F2
:100C8000004870470402002010B50A00002805D073
:100C90000549064802F0C3FD034810BD0249034858
:100CA00002F0BDFDF8E7C046EC0700202443000831
:100CB00010B50A00034C2100034802F0B0FD2000EB
:100CC00010BDC046EC0700201043000810B50A0014
:100CD000002805D00549064802F0A1FD034810BDD3
:100CE0000249034802F09BFDF8E7C046EC070020EC
:100CF0003843000810B50A00002805D00549064809
:100D000002F08DFD034810BD0249034802F087FD43
:100D1000F8E7C046EC070020E442000810B50A00DE
:100D2000002805D00549064802F079FD034810BDAA
:100D30000249034802F073FDF8E7C046EC070020C3
:100D4000F84200087047FEE77047704710B501F0A1
:100D5000FDFF10BD10B5024801F0D4F810BDC0462B
:100D6000CC05002082B00C4B996901221143996196
:100D700099690A400092009ADA69802149050A437C
:100D8000DA61DB690B400193019B044A136810216F
:100D90000B43136002B07047001002400000014096
:100DA00010B588B004001422002103A802F0BAFE96
:100DB0002268124B9A4201D008B010BD104B9969BD
:100DC00080204001014399619A6902400192019A91
:100DD0005A69802189020A435A615B690B40029378
:100DE000029BA02303939E3B049301330693902020
:100DF00003A9C00501F0CAFFDEE7C046003001408C
:100E00000010024070B5041E58D0EA23FF33C35CC3
:100E1000002B05D0EA23FF330322E254002218E01E
:100E2000E933FF330022C254FFF7BAFDF2E7D100E5
:100E3000891A8B00E3181900293101200870013943
:100E40000A7018002B300021017059639963D9632F
:100E5000013260689042EAD8002214E0D100891A79
:100E60008B00E3181D000A35FF3500212970013D74
:100E70002A700335297009352960043529601D332E
:100E8000FF33196001329042E8D8402301222168E3
:100E9000CA5200222168CA524421206842520C31B1
:100EA00020684252064A2168CA5200221C3BE25482
:100EB0000122EA23FF33E254002070BD0120FCE749
:100EC00000BFFFFF016858228B5A034803439BB2BF
:100ED0008B5200207047C0460080FFFFF4235B0068
:100EE000C35C012B13D0F4235B000122C254002900
:100EF0000AD19D3BFF3B7F320168CA52F4235B005D
:100F00000022C254002070472423C154F6E7022077
:100F1000F9E70000F0B54DB2002D65DB7F240C40F1
:100F2000E600361BB4000934FF3404197F26314033
:100F30002170ED0F6570E260E370F4235B00C35C29
:100F4000012B00D175E1F4235B000122C254E37848
:100F5000012B00D174E0002B4ED0022B59D0032B73
:100F600061D02278930001688C4663441988B24DA1
:100F700029400A43B1490A431A80A37A002B00D0C2
:100F8000B5E06378002B00D167E0A28805685023A4
:100F9000EB5A2178C9005B185B198021C9008C4687
:100FA000634401218A431A8023789B000268944697
:100FB00063441A88510604D59F490A40A0490A4350
:100FC0001A802278920003689C46624413889D49E7
:100FD0000B4020214B4099490B431380F4235B00C5
:100FE0000022C2540020F0BD7F240C40E600361BD6
:100FF000B4002834041999E723789B0002689446CA
:1010000063441A8890491140802292000A431A8052
:10101000A7E723789B000268944663441A888A49AC
:101020000A401A809DE723789B0002689446634437
:101030001A8885491140C022D2000A431A8090E7DD
:1010400023789B000268944663441A887E491140C5
:101050008022D2000A431A8083E7A28805685026BE
:10106000AB5B2178C9005B185B1978498C466344F7
:1010700001218A431A8001688B5B2278D2009B1879
:101080005B18734A94466344E1683E2926D94A09AD
:1010900092B2C90601D1013A92B2920292B26D495E
:1010A0000A431A8023789B000268944663441A8896
:1010B000510404D560490A4067490A431A802378DD
:1010C0009B000268944663441988644A1140C02218
:1010D00092015140594A0A431A807FE74A0892B266
:1010E000C90701D5013292B292021A80DAE7237859
:1010F0009B000268944663441A8859491140594A32
:101100000A431A80E28805685027EB5B2178C90002
:101110005B185B198021C9008C4663440126B243E9
:101120001A8022890568EB5B2178C9005B185B197E
:1011300046498C466344B2431A806378002B3DD104
:1011400023789B000268944663441A88510404D5AE
:1011500039490A4040490A431A8023789B000268B3
:10116000944663441A88510604D533490A403449E9
:101170000A431A8023789B000268944663441A88C5
:101180002D4911402E4A0A431A80217889000368AC
:101190009C4661440B88314A1A40C0239B0153404E
:1011A000264A13430B8023789B0001688C466344D6
:1011B0001988244C21400A431A800FE723789B00AA
:1011C0000268944663441A88510404D51A490A40B7
:1011D00021490A431A8023789B000268944663449D
:1011E0001A88510604D514490A4015490A431A8041
:1011F00023789B000268944663441A880E49114084
:10120000154A0A431A802178890003689C46614484
:101210000B880C4A1340094A13430B8023789B0028
:1012200001688C46634419880C4C21400A431A809B
:10123000D4E60220D7E6C0460F0F00008080FFFFF3
:10124000C080FFFFBF8FFFFF8F89FFFF04040000F6
:10125000060400000080FFFF80C0FFFF8FBFFFFF7C
:101260000F0E00008081FFFF10B54AB2002A3ADB62
:101270007F230B40DC00E41AA3000933FF33C318BB
:101280007F2421401970D20F5A70F4225200825CE0
:10129000012A00D1C1E0F4225200012181549A7A3E
:1012A000002A41D15A78002A25D01A789200016884
:1012B0008C46624411884C0604D5594C2140594C47
:1012C000214311801B789B000268944663441A886E
:1012D00055491140554A0A431A80F4235B00002205
:1012E000C254002010BD7F230B40DC00E41AA30091
:1012F0002833C318C4E71A78920001688C46624408
:1013000011884C0404D5464C2140494C214311809E
:101310001B789B000268944663441A884549114033
:10132000424A0A431A80D8E75A78002A3AD11A78F2
:10133000920001688C46624411884C0404D5384CF4
:1013400021403B4C214311801A78920001688C4661
:10135000624411884C0604D5314C2140314C214364
:1013600011801A78920001688C46624411882C4CD6
:101370000C402C49214311801C78A400026894463B
:10138000644422882B490A4028490A4322801B785A
:101390009B000268944663441A88234C2240114300
:1013A00019809AE71A78920001688C466244118885
:1013B0004C0404D51A4C21401D4C214311801A784D
:1013C000920001688C46624411884C0604D5144C86
:1013D0002140144C214311801A78920001688C46F8
:1013E000624411880E4C0C401149214311801C7835
:1013F000A40002689446644422880B490A400B49C1
:101400000A4322801B789B000268944663441A8832
:10141000084C2240114319805FE7022062E7C04672
:101420000F0F0000C080FFFFBF8FFFFF8080FFFF16
:1014300080C0FFFF8FBFFFFF70B57F242140CD002C
:101440006D1AAC00041925001935FF352A602200F9
:101450001D32FF321360083500222A60173D2A70C2
:1014600022000932FF3211701534FF342268934292
:1014700040D9CD006D1AAC0004191D34FF349B1AFD
:101480002360CC00641AA3001C00C3181333FF337D
:101490001B78002B41D105685033EB5A04190934ED
:1014A000FF342478E4001B195B195E4CA4466344A6
:1014B0003E2A29D95409A4B2D20601D1013CA4B2D2
:1014C000A402A4B2584A14431C800368CA00511AEB
:1014D0008A0080180930FF30027892009B18198822
:1014E000524A1140C02292015140514A0A431A8087
:1014F000002070BDCC00641AA20082181D32FF3299
:10150000002414601A00BCE75408A4B2D20701D525
:101510000134A4B2A4021C80D7E7CC00641AA30053
:101520001C00C3180A33FF331B78002B23D1056836
:101530005033EB5A04190934FF342478E4001B19A2
:101540005B193C4CA44663443E2A0BD95409A4B20F
:10155000D50601D1013CA4B2A402A4B2324D2C4361
:101560001C800AE05408A4B2D50701D50134A4B206
:10157000A4021C8001E0012B24D0CC00641AA3003B
:101580001C00C3180A33FF331B78002B35D10568C4
:101590005033EB5A04190934FF342478E4001B1942
:1015A0005B19204CA44663443E2A1DD95409A4B2B9
:1015B000D20601D1013CA4B2A402A4B21A4A144337
:1015C0001C8082E705684F33EB5ACE00761AB400D0
:1015D00004190934FF342478E4001B195B19154CF5
:1015E000A44663441A80C8E75408A4B2D20701D5C0
:1015F0000134A4B2A4021C8067E7012B00D064E789
:1016000005684F33EB5ACE00761AB400041909343A
:10161000FF342478E4001B195B19024CA446634490
:101620001A8052E7060400000080FFFF8FBFFFFF13
:101630008080FFFF020400007F231940CB00591A6D
:101640008B00C0182130FF300088704710B5F4239C
:101650005B00C35C012B4DD0F4235B000122C2541C
:101660004CB2002C20DBCA00521A93000933FF331E
:10167000C31801229A707E3211401970E40F5C7019
:1016800000291AD1890003689C4661440A881A4BD4
:101690001A401A4B5A401A4B13430B80F4235B0039
:1016A0000022C254002010BD6A3BFF3B0B40DA0011
:1016B000D21A93002833C318DBE7002C0CD0890022
:1016C00003689C4661440B880E4A13401022534025
:1016D0000B4A13430B80E1E7890003689C46614491
:1016E0000A88094B1A4080235B015A40044B13437C
:1016F0000B80D3E70220D6E7BFBFFFFF101000002A
:101700008080FFFFBF8FFFFF8FBFFFFF10B54AB282
:10171000002A38DBCC00641AA3000933FF33C31856
:1017200000249C707F3421401970D20F5A70F4222B
:101730005200825C012A4AD0F422520001218154D5
:101740005A78002A27D01A78920001688C466244A1
:1017500011884C0604D51F4C21401F4C2143118099
:101760001A78920003689C46624413881B490B4018
:1017700030214B401A490B431380F4235B000022B5
:10178000C254002010BD7F230B40DC00E41AA300EC
:101790002833C318C4E71A78920001688C46624463
:1017A00011884C0404D50B4C21400E4C2143118070
:1017B0001B789B0002689446634419880A4A1140CA
:1017C000C02292015140064A0A431A80D5E70220FE
:1017D000D8E7C0460F0F0000C080FFFFBF8FFFFF9C
:1017E0008080FFFF80C0FFFF8FBFFFFF10B5013378
:1017F0005B0812188020C0008446624407E0087825
:101800004C782402044314800231013B0232002B45
:10181000F5D110BDF8B505007F240C40E000001B99
:10182000810069188A63CB6300220A640A002932A6
:1018300001201070013A14704F6BBB4233D9DB1B8F
:10184000CB63E200121B93001A00EB1832331B78B3
:10185000002B30D02868E200121B9300EB182833CD
:101860001B789A00825A520674D5E600361BB200E5
:10187000AA1829321278002A3BD15032825ADB0052
:10188000D3181818614B9C4660443E2F28D97B0919
:101890009BB2FA0601D1013B9BB29B029BB25C4A10
:1018A0001343038027E0E100091B8A00AA180021E6
:1018B000D1631F00C5E7BFB2AE18B28D3B00B16B5C
:1018C0002868FFF793FF2A685023D35A28363178C7
:1018D000C9005B189B184F4A944663441F8082E0FE
:1018E0007B089BB2FA0701D501339BB29B020380B0
:1018F00001E0012A24D0E200121B9300EB181A8E9B
:10190000BBB2E100091B8E00AE19B16B2868FFF76E
:101910006DFF29363378002B55D0012B63D1E200BF
:10192000121B9300EB1828331B789B002A689446FF
:1019300063441A8838491140384A0A431A8052E0F1
:101940004F32825ADB00D3181818304B9C46604443
:101950000780D0E7E600361BB200AA1829321278B9
:10196000002A1ED15032825ADB00D3181818294B96
:101970009C4660443E2F0BD97B099BB2FA0601D1ED
:10198000013B9BB29B029BB2214A134303800AE0B6
:101990007B089BB2FA0701D501339BB29B020380FF
:1019A00001E0012A05D0E200121B9300EB18DA8D4A
:1019B000A6E74F32825ADB00D3181818154B9C4605
:1019C00060440780EFE7E200121B9300EB18283316
:1019D0001B789B002A68944663441A880E4911407C
:1019E0000F4A0A431A802A68E1000C1BA300ED1875
:1019F00028352B789B00D21813880A490B403021D8
:101A00004B4009490B4313800020F8BD0604000039
:101A10000080FFFF020400000F0F000080C0FFFFE6
:101A2000C080FFFFBF8FFFFF8080FFFF30B55D08E4
:101A300012188020C0008446624406E014880C70AE
:101A4000240A4C70013D02320231002DF6D1DB0731
:101A500001D513880B7030BDF0B583B0050001AB24
:101A600000221A8028684423C35A9BB26A46D38056
:101A70001BB2002B00DB39E26B46DC880F231C40D5
:101A800000D0B5E06B4606331B88DB064BD50288D9
:101A900001AB1A801B881B0575D401AB1B881BB2D8
:101AA000002BDFDA0388CA4A1340038028685023DA
:101AB000C35A84225200AA5CD2009B181B18C54A44
:101AC000944663441B889B059B0D2A000932FF3214
:101AD0009361002B00D077E000212800FEF78AFFF9
:101AE0002B6850229A5A9A18BA4B9C4662442B0093
:101AF0000933FF33D9683E2971D94B099BB2C90616
:101B000001D1013B9BB29B029BB2B3490B431380B3
:101B100029680A88B14B1A40C0239B015A40B04B38
:101B200013430B809EE70388AE4A13400380296865
:101B30005023CB5A2822AA5CD2009B185B18AA4AD1
:101B4000944663441B889B059B0D2B64AA6B9446AB
:101B50006344AB6300212800FEF75BFF2423EB5CAA
:101B6000002B00D17EE7EB6B002B00D07AE724221C
:101B7000AB5C802149420B43DBB2CC312868435235
:101B80000023AB546EE75023C35A84225200AA5C50
:101B9000D2009B181B188F4A944663441B889B05F0
:101BA0009B0D2A000932FF3293612900ED31FF318C
:101BB0009288FFF73BFF2A68138885490B40138002
:101BC0002800FEF70DFF4DE7140092882169FFF70A
:101BD0002DFF2369A2699446634423617CE74B0887
:101BE0009BB2C90701D501339BB29B0213808FE7DB
:101BF000A700C019028801AB1A801B881BB2002BFA
:101C000031DB01AB1B881B0600D42BE72B689C46FD
:101C100067443B88734A13403B80E200121B9300E9
:101C20001A00EB1832331B78002B00D0E2E0286852
:101C30005033C35AAA18110028310978C9005B181B
:101C40001B1869498C4663441B889B059B0D1364D4
:101C500000D1FDE0E200121B910069188A8D896BAA
:101C6000FFF7C4FDF4E05A4B1A400280E200121B59
:101C700093001A00EB181333FF331B78002B1DD190
:101C800028685033C35A1100AA180932FF3212785B
:101C9000D2009B181B184F4A944663441E88B60511
:101CA000B60D34D06B181A000D32FF32128819337A
:101CB000FF3319683300FFF7B9FE28E02868E20017
:101CC000121B9300EB180933FF331B789A00825ADA
:101CD000520456D55022825ADB00D3181B18424AB0
:101CE000944663441E88B605B60D3BD1E200121B34
:101CF0009300EB180933FF331B789B002A68944646
:101D000063441A8839491140394A0A431A8031001C
:101D1000E200121B9300EB1818002130FF3002681C
:101D2000921902601A001932FF3210688446664424
:101D300016601D33FF331B68002B08D0E200121B16
:101D4000900028181530FF300268914234D2E2002A
:101D5000121B9300EB180933FF3319782800FEF7A4
:101D600049FE4EE7E200121B9300EB181A000F32F7
:101D7000FF3212881933FF3319683300FFF756FE1C
:101D8000B4E75022825ADB00D3181B18114A94463C
:101D900063441E88B605B60DA8D0E200121B93005E
:101DA000EB181A001132FF3212881933FF33196809
:101DB0003300FFF73BFE99E7E100091B8A00AA18F0
:101DC0000932FF32117832002800FFF735FB18E79F
:101DD0008F0F0000060400000080FFFF8FBFFFFF91
:101DE0008080FFFF0F8FFFFF020400000F0F000035
:101DF000C080FFFF2868E200121B9300EB18283315
:101E00001B789A00825A52064DD55022825ADB0026
:101E1000D3181B18374A944663441B889B059B0DB7
:101E2000E100091B8A001100AA181364002B34D1A9
:101E3000E200121B9300EB1828331B789B002A68E2
:101E4000944663441A882C4911402C4A0A431A804C
:101E500028685023C25AE100091B8B00EB181900B7
:101E600028310978C9005218121822498C46624458
:101E700012889205920D1A64996B8C4662449A639B
:101E8000DB6B002B28D1E3001C1BA300EB182833CD
:101E900019782800FEF7BDFDE4E56918CA8D896B45
:101EA000FFF7A4FCC4E75022825ADB00D3181B18AA
:101EB000134A944663441B889B059B0DE100091B54
:101EC0008A001100AA181364002BB1D069180A8E79
:101ED000896BFFF78BFCABE7E1000C1BA1006918D5
:101EE000283109782800FFF795FCBBE5002003B0F6
:101EF000F0BDC046020400000F0F000080C0FFFFCD
:101F00000604000070B5040044230268D35A1BB2D3
:101F1000002B46DB236844229A5A520544D4236896
:101F200044229A5A520404D544215A5A3448024051
:101F30005A52236844229A5A920404D544215A5A88
:101F4000304802405A52236844229A5AD20438D464
:101F5000236844229A5A120513D54422995A2A48D2
:101F60000140995220684023C15A08252943C15293
:101F70002068C15A04252943C15223689B5ADB04B7
:101F800031D5236844229A5A920530D423684422DA
:101F90009A5AD20504D544215A5A1C4802405A5232
:101FA00070BDFFF759FDB5E744215A5A1848024061
:101FB0005A522000FEF741FD00212000FEF78EFF5F
:101FC000ADE74022995A042081439952114B216870
:101FD0008B522000FEF750FD216844228B5A0E4898
:101FE00003408B52B4E72000FEF734FDC9E74421DB
:101FF0005A5A0A4802405A522000FEF717FDC5E718
:10200000FFBFFFFFFFDFFFFFFFF7FFFFFFFEFFFF49
:10201000FFFBFFFF00BDFFFFFFEFFFFFFFFDFFFF27
:1020200010B50C060FD57F242140CC00611A8C001E
:1020300028340019002A0DD001228272C3801B0CA3
:102040000381002010BDCC00611A8C000934FF34DC
:102050000019EFE782728380F3E70000F8B506000D
:102060000C0017001D003EE0002D05D000F076FEAC
:10207000069BC01AA84236D332685368E0218B43CE
:10208000536082235B0072689A420CD080239B01CC
:10209000B26A9A4216D05D230122F254013B00221B
:1020A000F254032027E0B36880221202934203D047
:1020B0008022D2009342E9D13268136840218B43D9
:1020C0001360E3E7326813680B490B401360326812
:1020D000116880239B010B431360DCE70123BB42A3
:1020E00008D06B1CC0D133689B682340A342F5D055
:1020F0000023F4E70020F8BDFFDFFFFFF0B583B059
:1021000007000C0015001E0001E0731C10D13A6896
:1021100093682340AB4245D0C023DB009C42F4D1FE
:10212000002DF2D1137BDBB26A46D371D379ECE791
:10213000002E05D000F012FE089BC01AB042E6D374
:102140003A685368E0218B43536082235B007A68CE
:102150009A420CD080239B01BA6A9A4216D05D2322
:102160000122FA54013B0022FA5403201BE0BB6811
:1021700080221202934203D08022D2009342E9D1FE
:102180003A68136840218B431360E3E73A681368A9
:1021900006490B4013603A68116880239B010B438A
:1021A0001360DCE7002003B0F0BDC046FFDFFFFF97
:1021B00070B582B004000D001600C02100922B0003
:1021C00000224901FFF79AFF002818D100962B0042
:1021D000002280212000FFF741FF002816D1C021F6
:1021E00000962B000022C9002000FFF787FF00287F
:1021F0000AD0236E202213432366032004E0236EBB
:10220000202213432366032002B070BD236E2022D8
:10221000134323660320F7E710B5041E5ED00023A6
:1022200083625D33C35C002B4CD05D230222E254F9
:102230002268136840218B431360E368E022D200D8
:10224000934245D90022F02109018B4205D0E021BB
:10225000C9008B4201D00021A162216B002905D168
:10226000E021C9008B4236D9022323636368A16849
:102270000B4321690B4361690B4380218900A069ED
:1022800001400B43E1690B43216A0B432168A06ABB
:1022900003430B60618B04230B40616A0B43616B4A
:1022A0000B43E1680B43216813434B602268D369F9
:1022B0000B490B40D361002323665D330122E254B6
:1022C000002010BD5C330022C254FEF769FDACE76C
:1022D00080225201B7E701232363C7E70120F0E71B
:1022E000FFF7FFFFF0B585B004000D0016001F00DA
:1022F0005C23C35C012B00D1D4E05C230122C254D7
:1023000000F02CFD01905D23E35C012B08D002203E
:102310005D230122E254013B0022E25405B0F0BDEE
:10232000002D00D1B4E0002E00D1B3E05C330322D5
:10233000E25400232366A563A687E687236441321F
:10234000A3520232A3522365E36480231B02A268D6
:102350009A421CD023681A68520603D41A68402196
:102360000A431A60E023DB00E2689A4233D96368CB
:10237000002B03D0E38F9BB2012B14D123682A8852
:10238000DA600235E38F013B9BB2E3870BE0226802
:1023900011688023DB010B431360DBE7002F00D1C2
:1023A0007AE07B1C0FD1E38F9BB2002B58D02368BF
:1023B0009A689207F2D52A88DA600235E38F013BEA
:1023C0009BB2E387EFE700F0C9FC019BC01AB8425B
:1023D000E9D303209CE76368002B03D0E38F9BB213
:1023E000012B21D1E38F9BB2012B08D923682A88C6
:1023F000DA600235E38F023B9BB2E38714E02B786F
:1024000022681373E38F013B9BB2E38701350BE036
:102410002A781A73E38F013B9BB2E387013503E00F
:10242000002F3BD07B1C13D1E38F9BB2002B17D026
:1024300023689A689207F3D5E28F92B2012AE7D90E
:102440002A88DA600235E38F023B9BB2E387EBE731
:1024500000F084FC019BC01AB842E5D3032057E783
:10246000019A39002000FFF7A3FE002801D02023A5
:102470002366A368002B06D103932368DA680392CE
:102480009B680393039B236E002B09D100203FE739
:1024900001203DE701203BE7032039E7032037E730
:1024A000012035E7022039E770B582B004000368E7
:1024B000DB072BD5B34B5A680C231340042B1DD0DC
:1024C000B04B5A680C231340082B0ED06368012BC5
:1024D00041D0002B56D1AB4B1A68AB490A401A6069
:1024E0001A68AA490A401A603BE0A64B5B68C02202
:1024F00052021340802252029342E7D1A14B1B6843
:102500009B0303D56368002B00D139E223689B0746
:1025100078D59C4B5B680C221A4262D0994B5A6862
:102520000C231340082B53D0E368002B00D18BE021
:10253000944A136801210B43136000F00FFC05005F
:10254000904B1B689B0776D400F008FC401B0228C8
:10255000F6D9032017E28B4A116880235B020B43F4
:1025600013606368002B25D000F0F8FB0500854B55
:102570001B689B03CAD400F0F1FB401B6428F6D90A
:10258000032000E2052B09D07E4B1A687E490A40E1
:102590001A601A687D490A401A60E2E7794B1968A7
:1025A0008022D2020A431A601968802252020A432A
:1025B0001A60D6E700F0D2FB0500724B1B689B0344
:1025C000A4D500F0CBFB401B6428F6D90320DAE148
:1025D0006C4B5B68C022520213408022120293426D
:1025E000A2D1684B1B689B0704D5E368012B01D07F
:1025F0000120C8E163490B68F82293432269D200A5
:1026000013430B6023681B0744D5E369002B2ED0CE
:102610005C4A536A01210B43536200F09FFB0500A3
:10262000584B5B6A9B0735D400F098FB401B02288F
:10263000F6D90320A7E153490B68F8229343226996
:10264000D20013430B60DDE74E4A136801218B4330
:10265000136000F083FB05004A4B1B689B07D1D534
:1026600000F07CFB401B0228F6D903208BE1454A91
:10267000536A01218B43536200F070FB0500414B0C
:102680005B6A9B0706D500F069FB401B0228F6D960
:10269000032078E123685B0700D47FE0394BDB69D6
:1026A000DB001DD4374AD169802040050143D16148
:1026B000D36903400193019B0125354B1B68DB0562
:1026C00010D5A368012B21D0002B36D12D4B1A6ACF
:1026D00001218A431A621A6A03318A431A621AE094
:1026E0000025EAE72A4A116880235B000B43136048
:1026F00000F034FB0600264B1B68DB05E1D400F03C
:102700002DFB801B6428F6D903203CE11D4A136A87
:1027100001210B431362A368002B24D000F01EFBA1
:102720000600184B1B6A9B0736D400F017FB801B72
:10273000184B9842F5D9032025E1052B09D0114B00
:102740001A6A01218A431A621A6A03318A431A6299
:10275000E1E70C4B1A6A04210A431A621A6A033928
:102760000A431A62D7E700F0F9FA0600054B1B6A24
:102770009B0711D500F0F2FA801B064B9842F5D961
:10278000032000E100100240FFFFFEFFFFFFFBFF00
:102790000070004088130000012D3AD02368DB064A
:1027A00010D56369012B3AD0053358D1784A536B61
:1027B00004218B435363536BF4318B43A169C900EC
:1027C0000B43536323689B0600D482E0704B5A6826
:1027D0000C2313400C2B60D06D4B5A680C23134014
:1027E000082B53D0236A002B60D0694A516B802399
:1027F0005B020B43536300F0B1FA0500644B5B6B63
:10280000DB0366D400F0AAFA401B0228F6D90320A5
:10281000B9E05F4AD3695F490B40D361BEE75C4BC7
:102820005A6B04210A435A635A6B03390A435A63A9
:1028300000F094FA0500564B5B6B9B0706D400F042
:102840008DFA401B0228F6D903209CE050494B6BBF
:10285000F8229343A269D20013434B63B2E74C4B77
:102860005A6B04210A435A635A6B03398A435A63E9
:1028700000F074FA0500464B5B6B9B07A2D500F095
:102880006DFA401B0228F6D903207CE0404B5B68C0
:10289000C022520213409342A4D13D4B5B6BDB0339
:1028A00017D5236A012B14D001206CE0384A536BF2
:1028B00039490B40536300F051FA0500344B5B6B10
:1028C000DB0306D500F04AFA401B0228F6D90320A4
:1028D00059E0636A002B55D02D4A51680C220A40FA
:1028E000082A52D0022B12D0294A13682B490B40D8
:1028F000136000F033FA0400254B1B689B013DD5A3
:1029000000F02CFA001B0228F6D903203BE0204AF5
:10291000136822490B40136000F020FA05001C4B9D
:102920001B689B0106D500F019FA401B0228F6D956
:10293000032028E0164BDA6A0F218A43216B0A43F1
:10294000DA625A6816490A40E16AA06A01430A43FA
:102950005A601968802252040A431A6000F0FEF996
:1029600004000B4B1B689B0106D400F0F7F9001B19
:102970000228F6D9032006E0002004E0002002E04F
:10298000012000E0002002B070BD0120FBE7C0463E
:1029900000100240FFFFFFEFFFFFFEFFFFFFFFFE03
:1029A000FF7FC2FF30B589B004AA1F4B180032C8A0
:1029B00032C2110002680A606A46103313CB13C298
:1029C0001B681360194B5A680C231340082B04D062
:1029D0000C2B26D0164809B030BD910C0F2319409E
:1029E00004A8445C1149C96A0B406946C95CC0230C
:1029F0005B021A4080235B029A4208D0C0235B022C
:102A00009A4209D00A48FDF77FFB6043E3E7084894
:102A1000FDF77AFB6043DEE70648FDF775FB604390
:102A2000D9E70448D7E7C0464C3B000800100240F5
:102A300000127A00006CDC0270B505000C00594BE6
:102A40001A68012313408B420BD256490B680122AE
:102A5000934323430B600B681A40A24201D001202C
:102A600070BD2B689B0706D54F4A5368F0218B43F6
:102A7000A9680B4353602B68DB0763D56B68012B98
:102A800009D0022B28D0032B2CD0474A126892077A
:102A900005D40120E4E7444A126892037FD54249F5
:102AA0004A680320824313434B6000F057F9060045
:102AB0006B68012B1CD0022B28D0032B34D03A4B4F
:102AC0005B680C221A423DD000F048F9801B374B5E
:102AD0009842F4D90320C3E7334A12689201DED446
:102AE0000120BDE7304A526BD203D8D40120B7E7AA
:102AF0002D4B5A680C231340042B23D000F02EF9E1
:102B0000801B2A4B9842F3D90320A9E7264B5A6829
:102B10000C231340082B15D000F020F9801B234B09
:102B20009842F3D903209BE71F4B5A680C231340AC
:102B30000C2B07D000F012F9801B1C4B9842F3D9E4
:102B400003208DE7174B1A6801231340A3420BD9CA
:102B500014490B680122934323430B600B681A400E
:102B6000A24201D001207BE72B685B0706D50E4A05
:102B700053680F490B40E9680B435360FFF712FF9E
:102B8000094B5A6812090F2313400A4AD35CD840F4
:102B9000094B1860002000F0B7F8002060E7012022
:102BA0005EE7C0460020024000100240881300008B
:102BB000FFF8FFFF4843000808020020014B186897
:102BC0007047C0460802002070B582B00400036858
:102BD000DB0335D5464BDB69DB005CD4444AD16965
:102BE000802040050143D161D36903400193019BDB
:102BF0000125404B1B68DB054FD53D4B1B6AC022AE
:102C00009200134013D061680A409A420FD0384BAB
:102C1000186A394A02401E6A80214902314319620A
:102C2000196A364E314019621A62C30749D4304AD4
:102C3000136A31490B4061680B431362012D4FD079
:102C40002368DB0706D52A4A136B03218B43A1684F
:102C50000B43136323689B0606D5254A136B10218B
:102C60008B43E1680B43136323689B0306D5204A1B
:102C7000136B80218B4361690B43136323685B05EE
:102C800033D51B4A136B40218B4321690B431363DC
:102C9000002002B070BD0025ABE7164A1168802302
:102CA0005B000B43136000F059F80600114B1B68E2
:102CB000DB05A2D400F052F8801B6428F6D903206B
:102CC000E7E700F04BF80600094B1B6A9B07AED400
:102CD00000F044F8801B0A4B9842F5D90320D8E74E
:102CE000D36908490B40D361AAE70020D1E7C04669
:102CF0000010024000700040FFFCFFFFFFFFFEFFDE
:102D000088130000FFFFFFEF10B50400FFF756FF28
:102D1000FA218900FDF7F8F900F038F901200022C6
:102D20002100404200F0F8F8002010BD10B5064A1E
:102D3000136810210B4313600020FFF7E5FFFEF737
:102D400011F8002010BDC04600200240024A13685E
:102D5000013313607047C046EC090020014B18682E
:102D60007047C046EC09002030B583B00190FFF7F2
:102D7000F5FF0500019C631C00D00134FFF7EEFF56
:102D8000401BA042FAD303B030BD0000F0B5C646E8
:102D900000B582B000236EE084683440A446CC685D
:102DA000BC406246144384604468AC434A681209DC
:102DB000012515409D4025434560C46826408C6828
:102DC000BC403443C4604A68D20053D54A4DAE6912
:102DD00001242643AE61AD692C400194019C9C08FE
:102DE000A51CAD00454EAF5903251D40AD000F2673
:102DF000AE40B7439026F605B04275D0404EB04283
:102E000074D0404EB0426DD00526AE4035003D43F3
:102E10000234A400394EA5513B4C25684246D443A8
:102E20002E0026404A68D20302D5424615432E00A2
:102E3000354D2E606D682E0026404A68920302D5FB
:102E4000424615432E00304D6E60AD682E00264080
:102E50004A68D20202D5424615432E002A4DAE6082
:102E6000ED682C404A68920202D542462A4314007B
:102E7000254AD46001330A681400DC4038D00125AB
:102E80009D402A409046F5D04C68022C01D0122C6F
:102E90000ED1DC080834A400275807261E40B600CF
:102EA0000F22B24097430A69B24016003E432650B3
:102EB00002685F0003242600BE40F6433240944679
:102EC0004A681440BC406246144304604C68621E69
:102ED000012A00D860E7112C00D15DE7122C00D048
:102EE0006BE759E7022690E700268EE701268CE77C
:102EF00002B004BC9046F0BD00100240000001404A
:102F0000000400480008004800040140002A01D1E4
:102F1000816270478161FCE770B5002811DB84088D
:102F2000134DC034A400625903231840C000FC3381
:102F30001E008640B24389010B4083401343635116
:102F400070BDC0B20F220240083A920806329200C9
:102F5000084BD3185D6803242040C000FF221400F2
:102F60008440A54389010A4082402A435A60E7E72A
:102F700000E100E000ED00E01F2318401E3B83400D
:102F8000014A13607047C04600E100E001380A4B77
:102F900098420FD8094A50600948036A1B021B0A6D
:102FA000C02109060B4303620023936007331360BB
:102FB000002070470120FCE7FFFFFF0010E000E069
:102FC00000ED00E0114B1A6801210A431A605A68AB
:102FD0000F4802405A601A680E4802401A601A6888
:102FE0000D4802401A605A680C4802405A60DA6A7A
:102FF0000F208243DA621A6B094802401A635A6B47
:103000008A435A6300229A607047C046001002400B
:103010000CB8FF08FFFFF6FEFFFFFBFFFFFFC0FF3E
:103020002CFEFFFF10B5002816D085239B00C35847
:10303000002B03D085239B000024C450002902D01C
:1030400084239B00C150FE235B000121C154027008
:10305000FDF728FD002010BD0220FCE7002904D068
:1030600085239B00C150002070470220FCE710B56B
:10307000FDF754FD002010BD10B585239B00C358FB
:10308000002B07D01B689847002801D1002010BDF5
:103090000220FCE70220FAE710B585239B00C35805
:1030A0005B689847002010BD70B5040082239B0028
:1030B000C518280000F02CF9FA235B000122E25029
:1030C000124BE25A163BE2501033E15CEA3BFF3B05
:1030D0000B40012B0FD0002B07D0022B10D07F23E9
:1030E00099432000FDF74DFD03E02900200000F08A
:1030F000B7FA002070BD2900200000F0D5FAF8E7EB
:103100002900200000F0EFFAF3E7C0460E020000AD
:1031100010B504001300002929D1FA225200825868
:10312000032A01D0002010BD421DFF329168D268F1
:1031300091420FD885239B00C3581B69002B05D0F3
:10314000FE225200825C032A00D19847200000F042
:10315000A2FBE7E7891A0530FF3081608A4200D977
:103160000A0092B21900200000F08DFBDAE78523F7
:103170009B00C3589B69002BD4D0FE225200825C76
:10318000032ACFD19847CDE770B50400130000297A
:103190004ED1FA2252008258022A06D080239B0088
:1031A000E35C012B3FD0002070BDC269056AAA42D2
:1031B0001ED8866929003000FDF72CF8002906D1B9
:1031C000B54204D8FC235B00E3589E421DD38523FF
:1031D0009B00E358DB68002B06D0FE225200A25C65
:1031E000032A01D120009847200000F060FBD5E7BA
:1031F000521BC26192B2190000F03DFB0023002275
:1032000000212000FDF717FDC8E70022200000F094
:1032100032FBFC235B000022E2500023002120004F
:10322000FDF709FDBAE780239B000022E254BAE7CC
:1032300085239B00C3585B69002BB4D0FE2252004B
:10324000825C032AAFD19847ADE770B504004023F4
:1032500000220021FDF772FC402588235B00E55029
:10326000D03B002280212000FDF768FC2562FE2370
:103270005B000122E2541C33E358002B06D0852367
:103280009B00E3585B68217920009847002070BDBF
:10329000017400207047FE235B00C15CFE22FF32F8
:1032A0008154FA3AFF3AC25400207047FE23FF339C
:1032B000C25C013BC2540020704710B5FE235B0086
:1032C000C35C032B01D0002010BD85239B00C35895
:1032D000DB69002BF7D09847F5E70300002002E0F8
:1032E0000130C0B201331A78002AF9D1704710B505
:1032F00004004B88012B0AD181239B000122C2507C
:103300001033C3589B689847200000F0C4FA10BDE2
:103310000B7803704B7843708B78CA7812029B1835
:1033200043800B794A7912029B1883808B79CA7982
:1033300012029B18C380704710B504008021FDF76E
:1033400020FC00212000FDF71CFC10BD30B583B02F
:1033500004000D0049880B0A072B00D992E09B005E
:10336000514AD3589F4684239B00C3581B68007C56
:103370006A46911D98476B4606331B88002B03D085
:10338000EA88002A00D082E003B030BD037C002B25
:1033900009D185239B00C3589B6A6A46901D9847B4
:1033A00002234370E7E785239B00C358DB6A6A4624
:1033B000901D984702234370DDE7C9B2052939D82B
:1033C00089003A4B5B589F4684239B00C3585B6837
:1033D000007C6A46911D9847CDE784239B00C35823
:1033E0009B68007C6A46911D9847C4E784239B0034
:1033F000C358DB68007C6A46911D9847BBE784236D
:103400009B00C3581B69007C6A46911D9847B2E730
:1034100084239B00C3585B69007C6A46911D9847D2
:10342000A9E784239B00C3589B69007C6A46911DD1
:103430009847A0E785239B00C3589B6B6A460632DA
:10344000984798E7037C002B07D185239B00C3583E
:103450005B6B6A46901D98478DE72900FFF76CFF6C
:1034600092E7037C002B09D185239B00C3581B6B7B
:103470006A46901D9847072343707CE72900FFF7B1
:103480005BFF81E729002000FFF756FF7CE7191C4E
:10349000934200D9111C8AB26B46D98001002000EA
:1034A00000F0DBF970E7C046584300087843000895
:1034B00070B504008B88002B22D1CB88002B1FD144
:1034C0008B787F251D40FE235B00C35C032B0FD050
:1034D000FF235B00C5542900FDF78DFB200000F0A1
:1034E000DAF9002D07D0FE235B000222E2540AE045
:1034F000FFF722FF07E0FE235B000122E25402E017
:103500002000FFF719FF70BD70B504000D00897829
:10351000284B197001290AD8FE235B00C35C022BDB
:1035200009D0032B1ED02900FFF706FF02E0290077
:10353000FFF702FF70BD002911D04160FE235B0040
:103540000322C254FFF798FD022803D0200000F0A8
:10355000A2F9EFE729002000FFF7EEFEEAE700F00E
:103560009AF9E7E7002911D0436899421ED0D9B2F1
:10357000FFF792FD0F4B197861602000FFF77CFD8B
:1035800002280ED0200000F086F9D3E7FE235B006E
:103590000222C2544160FFF77FFD200000F07BF95A
:1035A000C8E729002000FFF7C7FEC3E700F073F962
:1035B000C0E7C046F802002010B5CB88012B09D126
:1035C000FE235B00C35C022B07D0032B0DD0FFF75B
:1035D000B3FE01E0FFF7B0FE10BD002383600100E1
:1035E0000831012200F039F9F6E7011D012200F04F
:1035F00034F9F1E710B5FE235B00C35C023BDBB29C
:10360000012B0ED80123C36081239B00C358002BDC
:1036100001D00323C36001000C31022200F01DF928
:1036200010BDFFF789FEFBE710B50400FE235B0029
:10363000C35C023BDBB2012B0ED84B88012B0AD1B5
:1036400081239B000022C2501033C3589B689847C7
:10365000200000F020F910BDFFF76EFEFBE7000030
:1036600010B54B78092B19D89B000E4AD3589F46AA
:10367000FFF76CFE002010BDFFF71AFFFAE7FFF717
:1036800043FFF7E7FFF798FFF4E7FFF7B3FFF1E732
:10369000FFF72DFEEEE7FFF7C7FFEBE7FFF74CFE66
:1036A000E8E7C0469043000870B504000D00FE2313
:1036B0005B00C35C032B13D10B79012B0DD8852341
:1036C0009B00C3589B689847EB88002B01D00020D3
:1036D00070BD200000F0DFF8F9E7FFF72DFEF6E7F8
:1036E000FFF72AFEF3E770B505000C008A88D1B217
:1036F000207860230340202B08D1F533FF33EB58AB
:103700009B68210028009847002070BD6378012B3A
:103710002CD0002B52D0032BF6D1FA33FF33EB5CC5
:10372000022B06D0032B0CD021002800FFF704FE4B
:10373000EAE70029E8D08029E6D02800FDF721FA41
:10374000E2E76388002B06D1002904D0802902D04B
:103750002800FDF716FA85239B00EB589B68210093
:1037600028009847280000F096F8CDE7FE235B007C
:10377000EB5C022B06D0032B0CD021002800FFF7B6
:10378000DBFDC1E70029BFD08029BDD02800FDF7AF
:10379000F8F9B9E76388002BB6D14B0603D12800AE
:1037A00000F079F8B0E72800FDF7FBF985239B00CE
:1037B000EB589B68210028009847F0E7FE235B0048
:1037C000EB5C022B06D0032B0AD021002800FFF768
:1037D000B3FD99E74B0697D02800FDF7D2F993E7A0
:1037E000130612D47F240C40103424012C19043405
:1037F0002800FDF7E6F900280ED0012323600222FD
:103800002100280000F029F87EE77F240C400134D5
:1038100024012C190434EBE700232360EFE770B593
:1038200004000D001600002816D0FFF756FD0130E9
:10383000400080B23080287003236B70013B08E0A9
:1038400001345A1CD2B2E9540233DBB2AA18002167
:10385000117021780029F3D170BD10B51300FA2240
:103860005200022484508361C3610A000021FDF7E5
:10387000D2F9002010BD10B513000A000021FDF799
:10388000CAF9002010BD10B513000A000021FDF791
:10389000D2F9002010BD10B5FA235B000422C250FB
:1038A000002300220021FDF7B6F9002010BD10B55D
:1038B000FA235B000522C250002300220021FDF7FD
:1038C000BAF9002010BD0000202303800048704793
:1038D0004802002086239B00C258C93BFF3B0021C1
:1038E000D15400207047000010B5024B1B68984768
:1038F00010BDC046FC0200200A2303800048704728
:103900006802002010B586239B00C4580A78B93B92
:10391000FF3B134026D0202B3ED14B78032B11D0F8
:1039200007D90A2B15D00B2B18D18B7823640020D4
:1039300033E0022B12D1210044310122FFF78DFF29
:1039400000202AE0210040310122FFF786FF0020FD
:1039500023E04B881B0A636400201EE0FFF7ECFCA9
:1039600002201AE04B780A2B0BD00B2B10D0062B21
:1039700001D0002011E000220021FFF76EFF00209F
:103980000BE0210048310122FFF767FF002004E02F
:103990008B78A364002000E0002010BD70B5040007
:1039A0008221FDF7DEF802212000FDF7DAF88623F8
:1039B0009B00E358002B0BD087239B00E3589B68A8
:1039C00098478625AD006059FDF750F900236351F3
:1039D000002070BD10B50400402302228221FDF7B3
:1039E000ADF84023022202212000FDF7A7F8542061
:1039F000FDF738F986239B00E05000280BD0C93B27
:103A0000FF3B0022C254103B020002212000FDF7C0
:103A100012F9002010BD0120FCE70000014B1860E6
:103A20007047C046FC02002070B58624A4000559EA
:103A30001C3C045D032C0CD14D342C5D002C01D0BA
:103A4000012007E0503401262E55FDF7E4F8002050
:103A500000E0022070BD000013488546134801684D
:103A6000090E134A914205D11248134901601348C7
:103A70001349016013481449144A002302E0D45842
:103A8000C4500433C4188C42F9D3114A114C00239A
:103A900001E013600432A242FBD3FFF793FA00F077
:103AA0001DF8FCF727FFFEE70018002004000000C7
:103AB0001F0000001810024001000000000001403B
:103AC000000000000000002074020020C043000835
:103AD00074020020F0090020FEE7000070B5002607
:103AE0000C4D0D4C641BA410A64209D1002600F019
:103AF00021F80A4D0A4C641BA410A64205D170BDE2
:103B0000B300EB5898470136EEE7B300EB589847FF
:103B10000136F2E7B8430008B8430008B84300088C
:103B2000BC43000803001218934200D1704719707B
:103B30000133F9E7F8B5C046F8BC08BC9E467047AB
:0C3B4000F8B5C046F8BC08BC9E467047B3
:103B4C0002030405060708090A0B0C0D0E0F1010D2
:103B5C000102030405060708090A0B0C0D0E0F10D1
:103B6C000000000000000000000000000000000049
:103B7C0000000000001000100010001000100010D9
:103B8C0000000010000000000028002800280000A1
:103B9C0000000000000000000000000000240024D1
:103BAC00007C00240048007C004800480000000015
:103BBC0000380054005000380014005400540038F1
:103BCC000010000000200054005800300028005461
:103BDC00001400080000000000100028002800104D
:103BEC0000340048004800340000000000100010B1
:103BFC0000100000000000000000000000000000A9
:103C0C0000080010002000200020002000200020D0
:103C1C000010000800200010000800080008000830
:103C2C0000080008001000200010003800100028C8
:103C3C000000000000000000000000000000000078
:103C4C0000100010007C00100010000000000000AC
:103C5C000000000000000000000000000000001048
:103C6C0000100010000000000000000000000038F0
:103C7C000000000000000000000000000000000038
:103C8C000000000000000010000000000008000808
:103C9C000010001000100010002000200000000098
:103CAC0000380044004400540044004400440038F0
:103CBC000000000000100030005000100010001038
:103CCC000010001000000000003800440044000404
:103CDC00000800100020007C0000000000380044A8
:103CEC000004001800040004004400380000000028
:103CFC0000080018002800280048007C0008000874
:103D0C0000000000007C004000400078000400042B
:103D1C0000440038000000000038004400400078E7
:103D2C00004400440044003800000000007C000403
:103D3C0000080010001000200020002000000000EF
:103D4C00003800440044003800440044004400386B
:103D5C00000000000038004400440044003C000413
:103D6C0000440038000000000000000000100000BB
:103D7C000000000000000010000000000000000027
:103D8C0000000010000000000000001000100010E7
:103D9C0000000000000C003000400030000C00005F
:103DAC0000000000000000000000007C0000007C0F
:103DBC00000000000000000000000000006000187F
:103DCC0000040018006000000000000000380044EF
:103DDC00000400080010001000000010000000009B
:103DEC0000380044004C0054005C00400040003897
:103DFC000000000000100028002800280028007C8B
:103E0C0000440044000000000078004400440078A6
:103E1C0000440044004400780000000000380044D6
:103E2C00004000400040004000440038000000000A
:103E3C0000700048004400440044004400480070F6
:103E4C0000000000007C00400040007C004000406E
:103E5C000040007C00000000007C00400040007826
:103E6C0000400040004000400000000000380044CA
:103E7C0000400040005C004400440038000000009A
:103E8C00004400440044007C0044004400440044CE
:103E9C00000000000038001000100010001000108E
:103EAC0000100038000000000004000400040004AE
:103EBC0000040004004400380000000000440048E6
:103ECC000050006000500048004800440000000012
:103EDC000040004000400040004000400040007C9A
:103EEC00000000000044006C006C005400440044CE
:103EFC0000440044000000000044006400640054CE
:103F0C000054004C004C00440000000000380044F9
:103F1C000044004400440044004400380000000009
:103F2C000078004400440044007800400040004009
:103F3C0000000000003800440044004400440044E9
:103F4C000054003800040000007800440044004491
:103F5C00007800480048004400000000003800448D
:103F6C00004000300008000400440038000000004D
:103F7C00007C001000100010001000100010001049
:103F8C00000000000044004400440044004400448D
:103F9C0000440038000000000044004400440028A5
:103FAC00002800280010001000000000004400440D
:103FBC00005400540054006C00280028000000003D
:103FCC00004400280028001000100028002800449D
:103FDC0000000000004400440028002800100010DD
:103FEC000010001000000000007C0004000800100D
:103FFC00001000200040007C0000000000180010A1
:10400C00001000100010001000100010001000181C
:10401C000020002000100010001000100008000804
:10402C000000000000300010001000100010001004
:10403C000010001000100030001000280028004470
:10404C000000000000000000000000000000000064
:10405C00000000000000000000000000000000FE56
:10406C000020001000000000000000000000000014
:10407C00000000000000000000380044003C004438
:10408C00004C003400000000004000400058006468
:10409C0000440044006400580000000000000000D0
:1040AC00003800440040004000440038000000008C
:1040BC00000400040034004C00440044004C003464
:1040CC00000000000000000000380044007C0040AC
:1040DC000044003800000000000C0010007C0010B0
:1040EC000010001000100010000000000000000084
:1040FC000034004C00440044004C003400040078B0
:10410C000040004000580064004400440044004457
:10411C0000000000001000000070001000100010E3
:10412C0000100010000000000010000000700010D3
:10413C000010001000100010001000E000400040C3
:10414C00004800500060005000480044000000008F
:10415C000070001000100010001000100010001073
:10416C0000000000000000000078005400540054CF
:10417C0000540054000000000000000000580064CF
:10418C000044004400440044000000000000000013
:10419C000038004400440044004400380000000093
:1041AC000000000000580064004400440064005803
:1041BC0000400040000000000034004C004400446B
:1041CC00004C00340004000400000000005800649F
:1041DC0000400040004000400000000000000000D3
:1041EC000038004400300008004400380000000093
:1041FC000020002000780020002000200020001863
:10420C000000000000000000004400440044004492
:10421C00004C00340000000000000000004400448A
:10422C0000280028002800100000000000000000FA
:10423C00005400540054006C0028002800000000BA
:10424C00000000000044002800100010002800446A
:10425C00000000000000000000440044002800287A
:10426C00001000100010006000000000007C00082E
:10427C00001000200040007C00000000001800101E
:10428C00001000100020002000100010001000187A
:10429C000010001000100010001000100010001092
:1042AC000010001000300010001000100008000872
:1042BC00001000100010003000000000000000741E
:1042CC00004C00000000000000000000426F6F7402
:1042DC0020446F6E65210000437573746F6D204828
:1042EC00494420436F6E6669670000004375737420
:1042FC006F6D2048494420496E7465726661636530
:10430C00000000005869616F4C75456C65637472F0
:10431C006F6E6963730000004D696E69204C4344F5
:10432C0020436F6E74726F6C6C657200303030307D
:10433C0030303030303031410000000000000000DF
:10434C000000000001020304060708098434000879
:10435C00663300088C330008BA3300088434000834
:10436C00843400084434000862340008C833000860
:10437C00DA330008EC330008FE3300081034000870
:10438C00223400088A360008963600089C3600084D
:10439C00903600089C360008783600087036000805
:0C43AC009C360008843600087E360008AD
:0443B800E900000810
:0443BC00C100000834
:1043C0000001960000000000000000000000000056
:1043D0000000000000119600000000000000000036
:1043E000000000000000000000B10003012C2D00BF
:1043F00000000000000000000000000000B2000308
:10440000012C2D0000000000000000000000000052
:1044100000B30006012C2D012C2D0000000000002F
:104420000000000000B400010700000000000000D0
:10443000000000000000000000C00003A202840091
:1044400000000000000000000000000000C10001AA
:10445000C500000000000000000000000000000097
:1044600000C200020A00000000000000000000007E
:104470000000000000C300028A2A000000000000C3
:10448000000000000000000000C400028AEE0000EE
:1044900000000000000000000000000000C5000156
:1044A0000E000000000000000000000000000000FE
:1044B00000200000000000000000000000000000DC
:1044C0000000000000360001A8000000000000000D
:1044D0000000000000000000003A0001050000009C
:1044E000000000000000000000000000002A00049E
:1044F0000000004F0000000000000000000000006D
:10450000002B00040000009F0000000000000000DD
:10451000000000000021000000000000000000007A
:10452000000000000000000000E00010021C071264
:104530003732292D29252B390001031000E1001005
:10454000031D07062E2C292D2E2E373F00000210AA
:1045500000136400000000000000000000000000E4
:104560000000000000290A00000000000000000018
:10457000000000000000000000000000000000003B
:10458000000000000000000000000000070A00001A
:104590006C3B0008710C00087D0C0008B10C000891
:1045A000890C0008CD0C0008F50C00081D0D000852
:1045B00012010002000000402211443300020102F7
:1045C000030100000403090400127A00D539000831
:1045D0009D390008053900080000000000000000B7
:1045E000D5380008E938000800000000000000008D
:1045F00000000000C9380008C9380008C9380008A0
:10460000F93800080000000009022000010100C084
:104610003209040000020000000007058202400089
:1046200000070502024000000A06000200000040E8
:044630000100000085
:0400000508003A595C
:00000001FF
